:020000040800F2
:1000000088250020F968000845010008470100081C
:10001000490100084B0100084D01000800000000E4
:100020000000000000000000000000004F01000878
:100030005101000800000000778500084105000814
:1000400013690008136900081369000813690008A0
:100050001369000813690008136900081369000890
:100060001369000813690008136900081369000880
:100070001369000813690008136900081369000870
:100080001369000813690008136900081369000860
:100090001369000813690008136900085301000878
:1000A0001369000813690008136900081369000840
:1000B0001369000813690008136900081369000830
:1000C0001369000813690008136900081369000820
:1000D00013690008CF0100086D01000813690008CA
:1000E000136900081369000813690008DFF80CD0D1
:1000F00008F0A0FE00480047010100088825002004
:1001000010B505F022FA03F01FFB03F0AFFA00F080
:1001100020FA04F013FD04F05FFD4FF4A06005F039
:10012000F3FA06F0B4FD0923044A0021044807F05D
:100130006CFE06F055FE002010BD000000020020FD
:10014000930400087047FEE7FEE7FEE7FEE770470E
:10015000704710B5202006F01FF810B93149012072
:100160000860BDE81040202006F031B870B52E4977
:100170000888020701F1040001D0008870BD0988D9
:100180008906FBD50088294BC2B219684C1C1C603B
:10019000274B5A54274B7B2801D10121197019781C
:1001A0000129EBD1244C21684D1C2560234D6A5454
:1001B0007D2802D02068FF28E0D300251D7003F0C1
:1001C000E6FA21681D4808F06DFA256070BD10B58B
:1001D0001B4C2021204605F050FF01281BD1204652
:1001E00005F0E2FE0F4A174B516823F81100491C35
:1001F000516019880020FF2909D05988AA2906D002
:100200009988AA2903D0D988EE2900D05060516876
:10021000052900D150602046BDE81040202105F09E
:1002200057BF0000000000200044004034000020C0
:10023000040C0020300000203800002004100020B2
:1002400000380140F80000200125A84C03E01E20E2
:1002500003F0D7F880B10F21012003F035FB02F045
:10026000E1FF1422A2A1AAA003F087F80F21002029
:1002700003F02AFB6560EAE703F004F9E7E72DE9FC
:10028000F041A54C994F30252088A44EFF281DD160
:100290006088AA281AD1A088AA2817D1E088EE2859
:1002A00014D12089052811D10120B86025806580EE
:1002B000A580E58025811021304605F0D9FC642019
:1002C00000F07DF91021304605F0D4FCB868012813
:1002D0007ED12088FF281ED16088AA281BD1A08843
:1002E000AA2818D1E088EE2815D1208998B9258050
:1002F0006580A580E58025812021304605F0BAFC87
:100300001021304605F0B4FC642000F058F91021AB
:10031000304605F0AFFC2088FF281FD16088AA284E
:100320001CD1A088AA2819D1E088EE2816D12089EE
:10033000012813D125806580A580E58025812021B5
:10034000304605F095FC1021304605F091FC642004
:1003500000F035F91021304605F08CFC2088FF288C
:100360001FD16088AA281CD1A088AA2819D1E088AA
:10037000EE2816D12089022813D125806580A5801A
:10038000E58025814021304605F074FC102130467F
:1003900005F06EFC642000F012F91021304605F0E3
:1003A00069FC2088FF2823D16088AA2820D1A08852
:1003B000AA281DD1E088EE281AD12089032817D158
:1003C00025806580A580E58025814021304600E0BC
:1003D0000EE005F04DFC1021304605F049FC64208C
:1003E00000F0EDF83046BDE8F041102105F042BCC8
:1003F000BDE8F081494C4A4D0BE01021204605F044
:1004000039FCFFF73CFF002264231146104607F039
:10041000FEFF2021284605F017FC0028F1D0ECE76C
:100420004FF4FA75314C03F039FB3049E32004F006
:100430005AFD00222B461146104607F0E8FF2B49D3
:10044000E520891C04F04FFD00222B461146104682
:1004500007F0DDFF2088E0606088206100222B46E5
:100460001146104607F0D3FFDDE770B505460024BE
:100470002C4E0AE04021304605F0FFFD0028F9D05F
:10048000295D304605F08CFD641C285D0028F1D103
:1004900070BD10B506F0B7FC08F046F8044622A07F
:1004A000FFF7E3FF1C4A3021118051809180D180F9
:1004B00011810A231F4A0021AFF29B0007F0A5FC1F
:1004C0000C231D4A0021AFF2D30007F09EFC0D2340
:1004D0001A4A0021AFF28F2007F097FC092007F09D
:1004E000BDFE2046BDE8104008F022B808000020FC
:1004F0006A7135616E356C794C626953326C3D724C
:100500007174746B3D6654704241383D00000000C8
:100510003539313535353000F8000020000801400C
:10052000000C014000380140706C61792C3030368D
:100530002C240000000400200006002000080020F9
:1005400010B506F0BBFB06F076FCBDE8104006F0E7
:10055000CBBB10B56FF0040005F01EF9244801680C
:100560002448B1FBF0F12448017041F28832514334
:10057000052242804FF0E020026942F0020202614F
:100580004161016941F00101016110BD70B50021B7
:100590004FF0E0256C69184A12785043AB69AA699C
:1005A0009A42FCD003D2A3EB0203194403E0A4EB6C
:1005B00002063344194413468142F0D370BD70B52E
:1005C00004460E48007801280CD10B4D68888442FF
:1005D00003D3B4FBF0F007F0F3FE6888B4FBF0F14E
:1005E00000FB11444FF47A706043BDE87040CDE7E2
:1005F0009000002000127A001C000020AB000020B8
:10060000FE488068704770B504460D46002C01D046
:100610002DB10AE00DB1012070BD002070BD012098
:1006200070BD207898B1641C6D1C207808F00DF81E
:100630000646287808F009F88642F2D0207808F0BB
:1006400004F80446287808F000F8201A70BD00204D
:1006500070BD70B50646304608F063F8451CE74BA0
:1006600028461B689847044634B12A46314620463E
:1006700007F0F1FF204670BD002070BDDF4A002862
:1006800002D0016831B904E0DD481060DD485060F7
:100690007047DB491160406800B9DA485060704724
:1006A00010B5D64928200968884704461CB128217E
:1006B000204607F0F7FF204610BD70B50446CF4E28
:1006C00019E02568A089C00503D4A06808B1FFF728
:1006D000F4FFA089C00503D4206908B17168884778
:1006E000A089800503D4206A08B1716888477168C1
:1006F000204688472C46002CE3D170BD2DE9F34FEE
:1007000085B08A4600242546BF490020CDE9020174
:10071000002637468346012001909AF800002D28D4
:1007200005D1BA490020CDE902010AF1010A9AF87F
:100730000000302801D10AF1010A9AF8000031388E
:10074000082817D89AF80000303808F022F98046B7
:1007500089460022AE4B2046294608F0A8F84246BA
:100760004B4607F0FDFF04460D461AF8010F3038DE
:100770000928E7D99AF800002E2827D19AF8010015
:10078000302823D3392821D80AF1010A9AF8000029
:10079000303808F0FEF88046894600229C4B2046FF
:1007A000294608F084F842464B4607F0D9FF044634
:1007B0000D460022944B3046394608F072F8064642
:1007C0000F461AF8010F30380928DFD99AF80000CF
:1007D000652801D045281DD11AF8010F2B2802D019
:1007E0002D2803D010E00AF1010A0DE04FF0FF3090
:1007F00001900AF1010A07E00BEB8B0100EB410BC2
:100800000AF1010AABF1300B9AF80000A0F13001B7
:100810000929F1D901980BFB00F008F0BAF832462B
:100820003B4607F09DFF02460B460020784909F041
:100830002BF906460F46DDE9020122462B4608F059
:1008400036F832463B4608F032F804460D46059825
:10085000C0E906452046294608F0CDF805994861CB
:1008600005980321C16007B05046BDE8F08F401ED7
:1008700040EA600040EAA00040EA201040EA202060
:1008800040EA2040401C70472DE9F0410446002C0E
:1008900009D022683AB1A36858186168814204DB24
:1008A000D018BDE8F0810020FBE7FFF7E0FF074626
:1008B000524E384631688847054665B1D4E9001282
:1008C000284607F0C8FE7168206888476760256081
:1008D000A0682844E5E771682068884700206060C8
:1008E0002060DEE710B50446002C08D0206830B147
:1008F000A168084407F015FFA168084410BD002056
:1009000010BD2DE9F04707460E46DFF8F080DFF80E
:100910000491D7E90645002213462046294608F0EF
:100920009DF813D12EB102213046FFF7ADFF80466E
:1009300004E0D8F80010022088478046B8F1000F84
:1009400003D035A00088A8F8000098E0786908F086
:1009500020F822462B4607F0A4FF21F00041002298
:100960004B4608F07BF822D82C4A2D4B20462946CE
:1009700008F074F81BD800222A4B2046294608F0BC
:1009800081F814D82EB115213046FFF77DFF80463F
:1009900004E0D8F80010152088478046B8F1000F11
:1009A0006DD021A140467A6908F0B8FA67E02EB10F
:1009B00040213046FFF768FF804604E0D8F8001079
:1009C000402088478046B8F1000F58D0204629467D
:1009D00008F08EFF22462B4607F063FF21F000410E
:1009E00000224B4608F03AF82BD825F0004120466B
:1009F0000E4A0F4B08F032F823D21BE020000020F3
:100A00001D9A0008CD9900080000F03F0000F0BFDB
:100A1000000024400000B03C300000000000C0FF97
:100A2000FFFFDF410000E0C12564000044F3C2E4A1
:100A3000E4E9634C22462B46F7A1404608F06EFAE3
:100A40001DE0204625F0004106460F46F44AF54BCE
:100A500008F004F806D3304639460022F24B08F07D
:100A600011F806D222462B46F0A1404608F056FA6D
:100A700005E022462B46EEA1404608F04FFA4046DC
:100A8000BDE8F0870178A1F13002092A01D81146AA
:100A90000AE0A1F14102052A01D8373904E0A1F1A9
:100AA0006102052A0AD857390A01401C0178A1F1D0
:100AB0003003092B04D8303A11440EE0002070476F
:100AC000A1F14103052B02D8373A114405E0A1F109
:100AD0006103052B0BD8573A11440A01401C0178D9
:100AE000A1F13003092B04D8303A11440EE0002064
:100AF0007047A1F14103052B02D8373A114405E0B4
:100B0000A1F16103052B0AD8573A11440901407835
:100B1000A0F13002092A04D8303908447047002077
:100B20007047A0F14102052A02D8373908447047BE
:100B3000A0F16102052A02D8573908447047002005
:100B400070472DE9F04780460D466C1C00202A783E
:100B5000B849222A05D08D6092E7641C5C2A00D136
:100B6000641C2278222A02D00AB1401CF5D10968FF
:100B7000401C88470746380004D0681C3C464FF4A8
:100B800080691AE000207BE75C2903D004F8011B90
:100B9000401C12E0461C3078722825D006DC622802
:100BA00016D0662818D06E2804D119E074281FD0FA
:100BB000752821D004F8010B701C0178222901D07E
:100BC0000029E1D100212170017822296AD06AE050
:100BD000082004F8010BEFE70C2004F8010BEBE709
:100BE0000A2004F8010BE7E70D2004F8010BE3E706
:100BF000092004F8010BDFE7701CFFF743FF0546EF
:100C0000361DA5F55C404845D6D3002DD4D0A5F5BA
:100C10005840484513D270785C28CDD1B0787528FB
:100C2000CAD1F01CFFF72EFFB61DA0F55C41494567
:100C3000C2D2C5F3090161F39F2000F5803504217C
:100C4000802D01D2012108E0B5F5006F01D202210B
:100C500003E0B5F5803F00D20321601801291AD0C6
:100C6000022911D0032908D0042919D105F0BF02A7
:100C700042F0800200F8012DAD0905F0BF0242F0FC
:100C8000800200F8012DAD0905F0BF0242F080029C
:100C900000F8012DAD09684A525C2A4300F8012D85
:100CA000441889E7401CC8F810700421C8F80C10DB
:100CB000E6E62DE9F05F05460E4600240021AA462F
:100CC0000AE0421E1F2A18D3222816D05C2814D00E
:100CD000002001430AF1010A9AF800000028F0D12F
:100CE000DFF850B180462227DBF8002039B135B358
:100CF000A9464D4699F800A041E00120E9E7AAEB9A
:100D0000050936B109F103013046FFF7BDFD044680
:100D100003E009F103009047044674B12770661C94
:100D20002946304607F004FD06F8097006EB090075
:100D300080F801802046BDE8F09F0020FBE72EB13F
:100D400003213046FFF7A0FD044602E00320904750
:100D500004462CB139A1204607F0EAFC2046EAE718
:100D60000020E8E7514636A007F0D1FC08B1641C2A
:100D700003E0BAF1200F00D2641D19F801AFBAF1F7
:100D8000000F01D0641CEDD12EB1E11C3046FFF7FD
:100D90007BFD064604E0DBF80010E01C88470646B1
:100DA0002EB1304600F8017B4FF05C0925E00020B1
:100DB000C1E71F2907D9222905D05C2903D000F8F3
:100DC000011B6D1C19E000F8019B044615F8012B6E
:100DD0000C2A41D006DC082A3AD0092A48D00A2A2F
:100DE00006D13DE00D2A3FD0222A12D05C2A0CD039
:100DF00015A1204608F092F8601D29780029D8D165
:100E0000077080F80180304695E784F80090601CF8
:100E1000F3E72770601CF0E7252E30660000000025
:100E20008DEDB5A0F7C6B03E65CDCD41256500007E
:100E30002566000020000020B4A400082222000043
:100E4000225C080C0A0D090075253034780000007A
:100E500062202070601CD0E766202070601CCCE708
:100E60006E202070601CC8E772202070601CC4E7F0
:100E700074202070601CC0E700691AE700E0401C85
:100E8000002804D00178002901D02029F7D9704723
:100E90002DE9F04107460878FE4E7B2802D0B1606C
:100EA0000020FEE40620F860481CFFF7E7FF054637
:100EB00028787D2818D0FFF7F3FB0446B860A8B166
:100EC0002846FFF7DBFF01462046FFF73AFEFFF713
:100ED000D5FF68B1216921620027276101783A298D
:100EE00008D0B0600020DCE4681CDAE40020D8E41C
:100EF0000020D6E4401CFFF7C1FF0146204600F069
:100F000086F8FFF7BBFF0546280028D1C9E4FFF7A4
:100F1000C7FBA8B1206044600446681CFFF7AEFF21
:100F200001462046FFF70DFEFFF7A8FF50B12169EB
:100F30002162276101783A2906D0B0600020B0E430
:100F40000020AEE40020ACE4401CFFF797FF014610
:100F5000204600F05CF8FFF791FF054645B1287880
:100F60002C28D4D028787D2804D0B560002098E4BF
:100F7000002096E4681C94E42DE9F04107460878C7
:100F8000C44E5B2802D0B16000208AE40520F860DE
:100F9000481CFFF773FF044620785D2811D0FFF747
:100FA0007FFB0546B86070B12046FFF767FF01463A
:100FB000284600F02CF8FFF761FF0446200004D01B
:100FC00016E0601C6DE400206BE4002069E4FFF78C
:100FD00067FBB0B1286045600546601CFFF74EFF17
:100FE0000146284600F013F8FFF748FF044654B1C5
:100FF00020782C28EBD020785D2806D0B460002023
:101000004FE400204DE400204BE4601C49E470B53F
:1010100005460C46002C20D004229FA1204607F054
:1010200090FBE0B105229EA1204607F08AFBD0B1DB
:1010300004229DA1204607F084FBC0B1207822281D
:101040001AD02D2803D0A0F13001092919D8214642
:101050002846BDE87040FFF751BB002070BD02205C
:10106000E860201D70BD0020E860601D70BD01209B
:10107000E8606861201D70BD21462846BDE87040CB
:101080005FE55B2805D07B2808D08248846000207B
:1010900070BD21462846BDE870406DE721462846D0
:1010A000BDE87040F4E62DE9F04104460D46904657
:1010B000FFF7F6FA0646774F0020B860BEB120462B
:1010C000FFF7DCFE01463046FFF7A1FF044684B17E
:1010D000B8F1000F12D02046FFF7D0FE044620786A
:1010E00060B13046FFF7E9FABC600020D9E6002085
:1010F000D7E63046FFF7E1FA0020D2E605B12C60D2
:101100003046CEE600221146CDE72DE9FF5F83464B
:10111000894615461F4600200390072001900024B1
:10112000DBF8080000260021009101E0761C006831
:101130000028FBD1DFF85C81D8F800102EB1002F19
:101140007ED0BE687DB302242FE04FB115B109F106
:10115000040100E003213846FFF796FB024606E053
:1011600015B109F1040000E003208847024662B18E
:1011700010467B2100F8011B7DB10A2100F8011BFC
:1011800000210923A9F1010905E0002004B0D2E5FE
:1011900000F8013B491C4945FADB7D210170002123
:1011A00041701046F2E7FFE70124611C3846FFF763
:1011B0006BFB90B17B2100F8011B15B10A2100F8EF
:1011C000011B4FF0000880F80080B8682044B86028
:1011D000DBF8084009F101096DE00020D6E78DB188
:1011E00049463846FFF750FB10B10021092204E0C0
:1011F0000020CBE700F8012B491C4945FADBB86811
:101200004844B8603946206AFFF753FD3846FFF777
:1012100069FBB86015B14FF0020A01E04FF0010A16
:1012200051463846FFF730FBB8B13A2100F8011BB0
:101230000DB109210170B8685044B8603B4600E028
:101240005BE02A464946204600F039FA3846FFF767
:1012500049FBB8601DB1012002E0002096E70020A4
:10126000216809B1012100E0002100EB010A0AF127
:1012700001013846FFF708FB18B3216811B12C2192
:1012800000F8011B15B10A2100F8011B80F800804D
:10129000B8680DE0200000206E756C6C0000000046
:1012A00066616C7365000000747275650000000073
:1012B0005044B8602468002C91D125B109F1010196
:1012C00002E0002062E702213846FFF7DDFA28B18C
:1012D0005DB100260921A9F1010904E0002055E7CC
:1012E00000F8011B761C4E45FADB7D21017080F869
:1012F0000180386830440390E1E04FEA860A5046A6
:1013000088470746380018D0FB4950460968884787
:1013100080465FEA080012D05146384607F0C2F90D
:101320005146404607F0BEF9DBF808B009F1010A62
:101330009DB301985044019034E0002026E7EE4927
:10134000384649688847002020E70021DBF8200064
:10135000FFF7AFFC029048F8240000232A465146CC
:10136000584600F0ACF92146641C47F82100029968
:10137000A1B198B107F0D5F98146029807F0D1F9EB
:1013800009EB000115B10AF1020000E00020014460
:1013900001980844801C019002E003E001200090C5
:1013A000DBF800B0BBF1000FCFD1009820B9D249D3
:1013B0000198096888470390039808B901200090B4
:1013C0000098B8B10024CC4D0AE058F8240008B1C8
:1013D0006968884757F8240008B169688847641C21
:1013E000B442F2DB696840468847696838468847F6
:1013F0000020CBE603997B200870039C641C15B188
:101400000A2004F8010B0020207081463FE03DB126
:101410000020092102E004F8011B401C5045FADBC2
:1014200058F8290007F07DF9834658F829105A46E4
:10143000204607F010F95C443A2004F8010B15B17E
:10144000092004F8010B57F82910204607F070F91D
:1014500057F8290007F065F90444701E814502D051
:101460002C2004F8010B15B10A2004F8010B002010
:101470002070DFF884B258F82900DBF804108847A0
:10148000DBF8041057F82900884709F10109B14534
:10149000BDDB994E40467168884771683846884779
:1014A0004DB100200921AAF1010A02E004F8011B54
:1014B000401C5045FADB7D202070002060700398AE
:1014C00064E62DE9FF4F83B0834690461F464FF0F8
:1014D00000094FF0050ADBF808000026002500246B
:1014E00001E0761C00680028FBD1834A11687EB1B8
:1014F000002F60D0BE6801213846FFF7C5F9D0B192
:101500005B210170B868401CB860DBF808503EE011
:101510002FB103213846FFF7B7F9044602E0032054
:10152000884704461CB175A1204607F001F9204602
:1015300007B0BDE8F08F0020FAE704993B46424629
:10154000491C284600F0BBF83846FFF7CBF9B860D5
:101550002868D8B1B8F1000F02D04FF0020901E0BD
:101560004FF0010909F101013846FFF78DF9F0B19B
:101570002C2100F8011BB8F1000F02D0202100F847
:10158000011B00210170B8684844B8602D680DB196
:10159000002CD2D002213846FFF776F948B15D2100
:1015A000017000214170386800EB060985E00020D9
:1015B000BEE70020BCE7B00002908847074638002D
:1015C00005D0029907F06EF8DBF808B01EE00020A5
:1015D000AEE7049900234246491C584600F06FF8D4
:1015E00029466D1C47F8210068B107F09AF80146BA
:1015F000B8F1000F01D0012000E00020084482442F
:101600000AF1020A00E00124DBF800B0BBF1000F90
:1016100001D0002CDDD024B93749504609688847ED
:101620008146B9F1000F00D101247CB10024324D74
:1016300005E057F8240008B169688847641CB44283
:10164000F7DB696838468847002071E75B2089F836
:1016500000004C464FF0000A04F801AF0025DFF807
:1016600098B020E057F8250007F05BF8019057F894
:1016700025102046019A06F0EEFF01980444701EE2
:1016800085420AD02C2004F8010BB8F1000F02D0DB
:10169000202004F8010B84F800A0DBF8041057F8B0
:1016A000250088476D1CB542DCDBDBF804103846AA
:1016B00088475D20207084F801A0484638E770B55F
:1016C0000024002809D0A3B3057B072D72D2DFE8E0
:1016D00005F017240631363B3F00002070BD052180
:1016E0001846FFF7D1F80446002C63D0AFF25841FA
:1016F000204607F01DF85DE0200000205B5D000043
:1017000006211846FFF7C0F80446002C52D0AFF26D
:101710007041204607F00CF84CE005211846FFF711
:10172000B3F8044634B3AFF28041204607F000F826
:1017300040E011E01946FFF7E4F804463AE01946A4
:10174000FFF79AFB044635E0FFF7BBFE044631E0A5
:10175000FFF7DBFC04462DE0037B072B2AD2DFE8F2
:1017600003F00A1004161B202500AFF2D440FEF748
:1017700070FF04461EE0AFF2D840FEF76AFF044651
:1017800018E0AFF2DC40FEF764FF044612E00021EF
:10179000FFF7B7F804460DE00021FFF76DFB0446A4
:1017A00008E00023FFF78DFE044603E00023FFF767
:1017B000ACFC0446204670BD0023012219467EE79A
:1017C00000231A4619467AE7FEB505460C4616462A
:1017D000F74B20461B689847009001940020029028
:1017E0006B46324600212846FFF769FFFEBD81683F
:1017F000002001E0401C09680029FBD17047806887
:1018000001E0491E0068002801D00029F9DC70477A
:1018100070B50D46846800E024682CB12946206A22
:10182000FEF7F1FE0028F7D1204670BD0160486048
:10183000704770B50546FEF733FF044674B12822A1
:101840002946204606F007FF00202062E16841F4A7
:101850008071E16060602060204670BD002070BD36
:1018600002469068002901D010B991607047104677
:1018700010B10268002AFAD1D8E770B505460E46C5
:101880001446002C0DD0206A10B1C9494968884718
:101890003046FEF7DEFE206221462846BDE8704055
:1018A000DEE770BD70B506460D461446002C11D01B
:1018B000A089800504D4206A10B1BD4949688847D1
:1018C0002562E06840F40070E06021463046BDE8E3
:1018D0007040C5E770BD10B504460846FFF7A9FF84
:1018E00001462046BDE81040BAE770B504460D46F3
:1018F0001046FFF79EFF024629462046BDE870408D
:10190000BBE70246906801E00068491E08B1002963
:10191000FADC80B1416809B103680B60016809B164
:1019200043684B609168814201D101689160002158
:101930000160416070470020704710B5FFF7E1FF7C
:10194000BDE81040FEF7B9BE2DE9F04106460F464E
:101950000025B46801E06D1C24682CB13946206A6A
:10196000FEF751FE0028F6D124B129463046BDE8E5
:10197000F041C6E70020BDE8F08110B5FFF7E4FFB5
:10198000BDE81040FEF799BE30B40C46114683689E
:1019900001E01B68641E0BB1002CFADC4BB10B603C
:1019A0005A684A60596082689A4204D1816030BCAA
:1019B000704730BC54E748680160F8E730B403462C
:1019C000986801E00068491E08B10029FADC002887
:1019D000EDD0016811604468546001B14A609968B3
:1019E000814201D19A6001E051680A6000214160A2
:1019F000016030BCFEF761BED9E72DE9F041064633
:101A0000884617460025B46801E06D1C24682CB197
:101A10004146206AFEF7F7FD0028F6D1002CAAD037
:101A20004046FEF716FE38623A4629463046BDE883
:101A3000F041C3E79FE710B5FEF732FE002801D062
:101A40000221C16010BD10B5FEF72AFE002801D0AA
:101A50000121C16010BD10B5FEF722FE002801D0A3
:101A60000021C16010BD10B50446FEF719FE002824
:101A700004D00CB1012100E00021C16010BD70B59F
:101A800004460D46FEF70CFE064646B10320F06004
:101A9000C6E906452046294606F0ADFF706130468E
:101AA00070BD70B50546FEF7FBFD04462CB1042061
:101AB000E0602846FEF7CDFD2061204670BD10B5E0
:101AC000FEF7EEFD002801D00521C16010BD10B564
:101AD000FEF7E6FD002801D00621C16010BD2DE90A
:101AE000F047804689460027FFF7E9FF06460024B5
:101AF0000DE058F8240006F04CFFFFF7C0FF054644
:101B00005CB129463846FFF791FE2F46641C0EB1A2
:101B10004C45EEDB3046BDE8F087B560F5E72DE9D2
:101B2000F047804689460027FFF7C9FF0646002494
:101B30000DE058F8240006F07DFFFFF7A0FF0546F2
:101B400054B129463846FFF771FE2F46641C0EB18A
:101B50004C45EEDB3046DEE7B560F6E72DE9F047B1
:101B6000804689460027FFF7AAFF064600240CE0BE
:101B700008EBC40103C9FFF782FF054654B12946AB
:101B80003846FFF753FE2F46641C0EB14C45EFDB81
:101B90003046C0E7B560F6E72DE9F04707468846CE
:101BA0004FF00009FFF78BFF064600240EE000000F
:101BB0002000002057F82400FFF773FF054654B1BA
:101BC00029464846FFF732FEA946641C0EB144453B
:101BD000F0DB30469FE7B560F6E72DE9F0410646B9
:101BE0000F460024002E1DD0FEF75AFD05462800A2
:101BF0001AD0F06820F48070E86070696861D6E9F6
:101C00000601C5E90601306918B1FEF722FD286119
:101C100060B1306A18B1FEF71CFD286258B17FB17F
:101C2000B66821E00020A6E60020A4E62846FEF7DC
:101C300044FD00209FE62846FEF73FFD00209AE67F
:101C4000284698E601213046FFF7C7FF20B144B18E
:101C500020604460044606E02846FEF72EFD002082
:101C600089E6A86004463668002EEBD1284682E655
:101C7000014626E0202A08D0092A08D00D2A08D0DB
:101C80000A2A08D02F2A08D00AE0401C19E0401C7C
:101C900017E0401C15E0401C13E043782F2B03D0C5
:101CA0002F2A06D008E0401C027852B10A2A08D038
:101CB000F9E743782A2B0BD0222A12D001F8012B06
:101CC000401C0278002AD5D1002008707047401CC3
:101CD000027822B12A2AFAD142782F2AF7D1801C21
:101CE000EFE701F8012B401C08E05C2A02D101F863
:101CF000012B401C10F8012B01F8012B02780AB1CE
:101D0000222AF2D110F8012B01F8012BD9E70000AB
:101D10007047704770B5102007F080FE04464FF4FE
:101D20008075284607F07AFE206000206060A06081
:101D3000E560204670BD10B504462068006807F0D5
:101D400045FE206807F042FE0020206010BD70B5FF
:101D50000546EC68264600206A6803E06400401CE3
:101D6000202802DCA31A8B42F8D3202802DD4FF092
:101D7000FF3070BDA6420DD2204607F04FFE06464A
:101D8000D5E90012304606F066FC286807F01EFE12
:101D90002E60EC60002070BD10B582684468531C52
:101DA000A34202D94FF0FF3010BD03689A5C0A705D
:101DB0008168491C8160002010BD70B504460E4644
:101DC0001546A06861682844884202D94FF0FF3068
:101DD00070BD284607F022FE3060A26821681144D9
:101DE0002A4606F038FCA0682844A060002070BD98
:101DF00010B582684468931CA34202D94FF0FF30AB
:101E000010BD03689C5C521C82609B5C521C82600B
:101E100003EB04200880002010BD30B50022002311
:101E200084684568241DAC4208D9501E30BD056841
:101E300084682D5D45EA0323641C84601446521CAB
:101E4000042CF4DB0B60002030BD38B504460D4691
:101E50000020009069462046FFF7CAFF002808D1FD
:101E6000BDF80000A16862680144914202D94FF0B8
:101E7000FF3038BD401C07F0D1FD2860BDF80010D0
:101E8000491C06F00FFCA1682068BDF80020014441
:101E9000286806F030FCBDF80010A0680844A06077
:101EA000002038BDF8B507460E4601240025002065
:101EB0000090306069463846FFF76EFF00280DD16C
:101EC0009DF80000316800F07F0202FB04113160D0
:101ED000E4016D1C042D02D94FF0FF30F8BD00065F
:101EE000E8D40020F8BD70B504460D46A06800286F
:101EF0000AD00020FFF70CFF01212046FFF727FF43
:101F000020B14FF0FF3070BD0120F3E7D4E90001AC
:101F100045546068401C6060002070BD70B5044688
:101F20000E461546A06800280AD00020FFF7F0FEF4
:101F300029462046FFF70BFF20B14FF0FF3070BD60
:101F40000120F3E7D4E9000108442A46314606F0AF
:101F500082FB606828446060002070BD70B5054653
:101F60000C46A868002808D00020FFF7D1FE210AFF
:101F70002846FFF7B8FF38B901E00120F5E7E1B2E4
:101F80002846FFF7B0FF08B1012070BD002070BDEA
:101F900070B505460C46A868002808D00020FFF759
:101FA000B7FE210E2846FFF79EFF98B901E00120F9
:101FB000F5E7C4F307412846FFF795FF50B9C4F38E
:101FC00007212846FFF78FFF20B9E1B22846FFF727
:101FD0008AFF08B1012070BD002070BD70B50546B4
:101FE0000E46A86800280CD00020FFF791FE30466E
:101FF00006F097FB84B221462846FFF7AFFF40B9B1
:1020000001E00120F1E7224631462846FFF786FF2E
:1020100008B1012070BD002070BD30B5044600221B
:10202000A068002818D00020FFF772FE01F07F039F
:10203000C909002901D043F08003606800F101055F
:10204000656025682B5402F1010201D0052AEDDB01
:10205000052A03D0012002E00120E5E70020FFF778
:1020600057FE002030BD2DE9F04106460D46FFF732
:1020700051FE074610213846FFF735FF304606F07F
:1020800050FB0446284606F04CFB21180D3138461B
:10209000FFF7C3FFF6A13846FFF7A0FF012138463E
:1020A000FFF721FF40213846FFF71DFF802138460A
:1020B000FFF754FF31463846FFF790FF2946384670
:1020C000FFF78CFF3846BDE8F0812DE9F041064668
:1020D0000D46FFF71FFE074610213846FFF703FFA6
:1020E000304606F01EFB0446284606F01AFB21186F
:1020F0000F313846FFF791FFDDA13846FFF76EFF3D
:1021000001213846FFF7EFFEC0213846FFF7EBFE0E
:1021100080213846FFF722FF00213846FFF7E3FE13
:1021200000213846FFF7DFFE31463846FFF756FFFD
:1021300029463846FFF752FF3846C4E72DE9F041FB
:1021400006460D461446FFF7E5FD074630213846A2
:10215000FFF7C9FE304606F0E4FA0119891C38463B
:10216000FFF75BFF31463846FFF738FF2246294626
:102170003846FFF7D3FE3846A5E72DE9F041804603
:102180000C461746FFF7C6FD06462046FFF714FB30
:102190000546284606F0C5FA044680213046FFF77A
:1021A000A2FEB8F1000F10D0404606F0BAFA0119AD
:1021B000891D3046FFF731FF80213046FFF793FE3F
:1021C00041463046FFF70AFF07E0211D3046FFF782
:1021D00024FF00213046FFF786FEF9B23046FFF7B4
:1021E00082FE29463046FFF7F9FE284607F0EEFB4F
:1021F000304668E72DE9F04F99B08146229D0F46A1
:1022000092469B466421684606F04CFAFFF75FFC55
:1022100004463DB12846FFF744FC024695A12046FE
:10222000FFF72BFBFFF74BFC0546FFF750FC06467C
:102230003846FFF736FC024690A13046FFF71DFBFB
:10224000FFF73DFC0746FFF742FC80465A466421F3
:102250006846FFF75EFD6846FFF723FC024688A14B
:102260004046FFF70AFB504606F093FBFFF707FCDA
:10227000024684A14046FFF700FB41463846FFF77F
:10228000EFFA3A4681A13046FFF7F7FA3146284681
:10229000FFF7E6FA2A4680A12046FFF7EEFA012270
:1022A00021464846FFF769FF05462046FEF705FA36
:1022B000284619B0BDE8F08F2DE9FF5F9AB0894636
:1022C000DDE928B714461D46642101A806F0EAF9A5
:1022D000FFF7FDFB06463FB13846FFF7E2FB02463B
:1022E00064A13046FFF7C9FAFFF7E9FB0746FFF79D
:1022F000EEFB80464846FFF7D4FB02465FA140460E
:10230000FFF7BBFAFFF7DBFB8146FFF7E0FB8246F6
:102310005A46642101A8FFF7FCFC01A8FFF7C1FBA6
:10232000024657A15046FFF7A8FA20462946FFF774
:10233000A6FB024653A15046FFF79FFA5146484676
:10234000FFF78EFA4A4651A14046FFF796FA4146FA
:102350003846FFF785FA3A464FA13046FFF78DFA27
:10236000012231461A98FFF708FF04463046FEF76F
:10237000A4F91EB02046BDE8F09F2DE9F04F99B0BA
:102380008246229D0F4691469B466421684606F090
:1023900089F9FFF79CFB04463DB12846FFF781FB16
:1023A000024634A12046FFF768FAFFF788FB05468E
:1023B000FFF78DFB06463846FFF773FB02462FA159
:1023C0003046FFF75AFAFFF77AFB0746FFF77FFB25
:1023D00080465A4664216846FFF79BFC6846FFF733
:1023E00060FB024626A14046FFF747FA4846FFF742
:1023F00058FB024623A14046FFF73FFA41463846C4
:10240000FFF72EFA3A4621A13046FFF736FA314659
:102410002846FFF725FA2A461FA12046FFF72DFA86
:10242000012221465046FFF7A8FE05462046FEF74A
:1024300044F928463DE72DE9F04105460E4617468A
:10244000FFF745FB0446384606F0A3FAFFF717FBF3
:10245000024631462046FFF710FA0322214628465D
:10246000FFF78BFE05462046FEF727F928462AE6A9
:1024700045445000746F6B656E0000006964000095
:102480006174000076616C756500000064617461C0
:10249000706F696E74730000646174617374726547
:1024A000616D73002DE9F04106460F4614461D4646
:1024B000FFF70DFB804620462946FFF7E0FA02466B
:1024C00039464046FFF7D9F9032241463046FFF727
:1024D00054FE04464046FEF7F0F82046F3E52DE9A9
:1024E000F04106460F461546FFF7F1FA0446284626
:1024F000FFF7D7FA024639462046FFF7BEF9032216
:1025000021463046FFF739FE05462046FEF7D5F84E
:102510002846D8E52DE9F0419AB006460F46904688
:102520001D46642101A806F0BDF8FFF7D0FA044665
:102530002A46642101A8FFF7ECFBFFF7C8FA05461D
:10254000404606F026FAFFF79AFA024601A9284605
:10255000FFF793F92A4639462046FFF78EF9042201
:1025600021463046FFF709FE05462046FEF7A5F84E
:1025700028461AB0A7E52DE9F04399B08046209F80
:10258000894614461D466421684606F08BF8FFF71D
:102590009EFA06463A4664216846FFF7BAFBFFF703
:1025A00096FA074620462946FFF769FA0246694629
:1025B0003846FFF762F93A4649463046FFF75DF97B
:1025C000042231464046FFF7D8FD04463046FEF768
:1025D00074F819B02046BDE8F0832DE9F0419AB0B7
:1025E00006460F4690461D46642101A806F05AF89B
:1025F000FFF76DFA04462A46642101A8FFF789FB1C
:10260000FFF765FA05464046FFF74BFA024601A977
:102610002846FFF732F92A4639462046FFF72DF9BA
:10262000042221463046FFF7A8FD05462046FEF766
:1026300044F828469DE7F8B516460D461A46DDE9EA
:10264000063104460020012C09D0032C0DD0042CA7
:1026500004D1009131462846FFF75CFFF8BD009198
:1026600031462846FFF7C6FDF8BD009131462846A1
:10267000FFF7E1FEF8BD2DE9FC410E461746DDE906
:102680000A15DDE9082304460020012C0BD0032C99
:1026900010D0042C05D1CDE9001539463046FFF79E
:1026A0006AFFBDE8FC81CDE9001539463046FFF7E9
:1026B00003FEF6E7CDE9001539463046FFF7F2FE96
:1026C000EFE7F8B516460D461A46DDE90631044631
:1026D0000020012C09D0032C0DD0042C04D1009132
:1026E00031462846FFF779FFF8BD0091314628466C
:1026F000FFF743FEF8BD009131462846FFF7EFFE95
:10270000F8BD38B504460D4669462046FFF79DFBE7
:1027100008B1FE4838BD0098FEF7F4FC2860009828
:1027200007F054F9286828B1D4E90110884204D18F
:10273000012003E06FF4806038BD0020FFF7E8FA65
:10274000002038BD2DE9F8430D4690460021009148
:102750006946FFF7D6FFED4F10B13846BDE8F88364
:10276000AFF2CC210098FFF753F8044624B120467D
:10277000FFF73DF8012801D03846EFE70021204659
:10278000FFF73DF8044614B3AFF210312046FFF7CF
:102790003FF80669304605F0C4FF401C07F03EF9DB
:1027A0002860304605F0BDFF421C3146286805F020
:1027B00052FFAFF228312046FFF72AF8044624B131
:1027C0002046FFF714F8012803D03846C6E73846FC
:1027D000C4E700212046FFF712F8AFF25831FFF7A7
:1027E00017F84069C8F800000098FDF766FF002060
:1027F000B4E72DE9F8430E461546002100916946DD
:10280000FFF77FFFDFF8048308B14046A6E7AFF289
:1028100078310098FEF7FCFF044624B12046FEF70D
:10282000E6FF012801D0404698E700212046FEF748
:10283000E6FF044614B3AFF2BC312046FEF7E8FFD2
:102840000769384605F06DFF401C07F0E7F8306077
:10285000384605F066FF421C3946306805F0FBFE3D
:10286000AFF2D8312046FEF7D3FF044624B120460C
:10287000FEF7BDFF012803D040466FE740466DE7F5
:1028800000212046FEF7BBFFAFF20841FEF7C0FF74
:10289000C169806903C50098FDF70FFF00205DE75F
:1028A0002DE9F8430E461546002100916946FFF7D1
:1028B00028FFDFF8588208B140464FE7AFF22841C1
:1028C0000098FEF7A5FF044624B12046FEF78FFFCF
:1028D000012801D0404641E700212046FEF78FFF46
:1028E000044614B3AFF26C412046FEF791FF07692E
:1028F000384605F016FF401C07F090F83060384667
:1029000005F00FFF421C3946306805F0A4FEAFF217
:1029100084412046FEF77CFF044624B12046FEF7A2
:1029200066FF012803D0404618E7404616E700211D
:102930002046FEF764FFAFF2B441FEF769FF046979
:10294000204605F0EEFE401C07F068F8286020469F
:1029500005F0E7FE421C2146286805F07CFE009841
:10296000FDF7ABFE0020F9E6F8B50F46164600214C
:1029700000916946FFF7C5FE644D08B12846F8BDD1
:102980000098846894B1206A05F0CBFE451C284667
:1029900007F044F838602A46216A05F05CFE606959
:1029A00030600098FDF789FE0020F8BDFDF785FE38
:1029B0002846F8BDF8B50E46154600210091694637
:1029C000FFF79FFE514F08B13846F8BD0098846864
:1029D0009CB1206A05F0A5FE471C384607F01EF89A
:1029E00030603A46216A05F036FED4E9060103C597
:1029F0000098FDF762FE0020F8BDFDF75EFE384648
:102A0000F8BDF8B50F461646002100916946FFF75C
:102A100078FE3E4D08B12846F8BD0098846804B39E
:102A2000206A05F07EFE451C284606F0F7FF386058
:102A30002A46216A05F00FFE2469204605F071FE42
:102A4000401C06F0EBFF3060204605F06AFE421C99
:102A50002146306805F0FFFD0098FDF72EFE0020AE
:102A6000F8BDFDF72AFE2846F8BD2DE9F843884653
:102A70001746002100916946FFF743FE234E08B137
:102A800030466BE6009A9468B4B1206AA0B105F0B4
:102A900048FE451C284606F0C1FFC8F800002A463B
:102AA000216A05F0D8FDA06858B1406938600098E7
:102AB000FDF703FE002051E61046FDF7FEFD30460F
:102AC0004CE60098FDF7F9FD304647E62DE9F8435E
:102AD00088461546002100916946FFF712FE0B4F0C
:102AE00008B138463AE6009A9468D4B1206AC0B179
:102AF00005F017FE461C304606F090FFC8F80000AF
:102B00003246216A05F0A7FDA06801E000FCFFFF46
:102B100060B1C169806903C50098FDF7CEFD002052
:102B20001CE61046FDF7C9FD384617E60098FDF78C
:102B3000C4FD384612E62DE9F843884616460021C2
:102B400000916946FFF7DDFDF74F08B1384605E60D
:102B5000009A946824B3206A10B305F0E2FD451C86
:102B6000284606F05BFFC8F800002A46216A05F0F7
:102B700072FDA068C8B10469204605F0D2FD401C72
:102B800006F04CFF3060204605F0CBFD421C21468C
:102B9000306805F060FD0098FDF78FFD0020DDE551
:102BA0001046FDF78AFD3846D8E50098FDF785FD0B
:102BB0003846D3E530B40D46114604461A464FF068
:102BC000FF30012C06D0032C07D0042C08D1284656
:102BD00030BC4AE7284630BCB4E5284630BCC3E6E2
:102BE00030BC704730B40D46114604461A464FF0CB
:102BF000FF30012C06D0032C07D0042CF0D128463E
:102C000030BC63E7284630BCF3E5284630BCD1E64B
:102C1000E6E730B40D46114604461A464FF0FF3041
:102C2000012C06D0032C07D0042CD9D1284630BC67
:102C300081E7284630BC33E6284630BCE1E6CFE7E2
:102C4000FEB504460D46002002900190009002A9B6
:102C50002046FFF727F96FF4816608B13046FEBDC4
:102C600001A92046FFF798F808B13046FEBD694635
:102C70002046FFF7BDF808B13046FEBDBDF8002084
:102C800029462046FFF799F808B13046FEBD0020DE
:102C9000FEBD2DE9F0478046894616461D4648464A
:102CA000FEF78AFD0746384605F03BFD0446B4F5BD
:102CB000803F23D8B5F5401F20D89CA14846FEF799
:102CC000A7FDD8B1FFF726F8814680214846FFF7D7
:102CD0000AF9B8F1000F17D0404605F022FD204454
:102CE00041190A314846FFF798F980214846FFF715
:102CF000FAF841464846FFF771F90EE0384606F00B
:102D000065FE0020BDE8F087611908314846FFF7ED
:102D100084F900214846FFF7E6F802214846FFF70C
:102D2000E2F839464846FFF759F9384606F04EFEB4
:102D300029464846FFF72CF92A4631464846FFF710
:102D4000EDF84846DEE72DE9F04780460E46174687
:102D50001D46304605F0E5FC0446B4F5803F02D838
:102D6000B5F5401F01D90020CCE7FEF7D3FF81461F
:102D700080214846FFF7B7F8B8F1000F11D0404660
:102D800005F0CFFC204441190A314846FFF745F9C8
:102D900080214846FFF7A7F841464846FFF71EF94D
:102DA00008E0611908314846FFF737F90021484625
:102DB000FFF799F802214846FFF795F83146484653
:102DC000FFF70CF929464846FFF7E2F82A4639464C
:102DD0004846FFF7A3F8484694E72DE9F047074631
:102DE0000E4690461C46FEF795FF814631190CB100
:102DF000062000E002200D18B0214846FFF773F8C6
:102E000029464846FFF709F931464846FFF7A6F834
:102E1000324639464846FFF781F844B121464846D4
:102E2000FFF7B6F8224641464846FFF777F848468E
:102E300068E710B5FEF76EFF0446C0212046FFF795
:102E400052F800212046FFF7E8F8204610BDF0B503
:102E500001230024012102684568012D01D80020CA
:102E6000F0BD6E1E042902D94FF0FF30F0BDB14213
:102E700001D90020F0BD491C521C107800F07F07DA
:102E800007FB0344DB010006ECD40819A842F1D982
:102E90000020F0BD70B504460026A06800280AD0C6
:102EA0000020FEF735FF2046FFF7D1FF0546002D35
:102EB00003DC304670BD0120F3E7FEF72BFF06462A
:102EC0002A4630462168FFF729F86068421B2068CF
:102ED000411905F0C0FB6068401B6060304670BD62
:102EE00008B5002100916946FEF756FF9DF80000E5
:102EF00008BD1EB5044669462046FEF7D3FF10B153
:102F0000094818301EBD02A92046FEF745FF10B142
:102F10006FF47A701EBD01A92046FEF73DFF48B14F
:102F2000014816301EBD000000FCFFFF64735F699E
:102F300064000000D4E90110884201D1012000E0C2
:102F40000020FEF7E5FE9DF80400EBE7F8B5044627
:102F50000D4617461E4669462046FEF7A3FF08B1F8
:102F60009C48F8BD29462046FEF76FFF10B19948EE
:102F7000401EF8BD286805F0D4FB00990A1A921E7D
:102F8000009239462046FEF718FF10B19148801E86
:102F9000F8BD00983060D4E90110884201D10120C9
:102FA00000E00020FEF7B4FE0020F8BD7CB5064628
:102FB0000C46154601A93046FEF774FF10B185484E
:102FC0000A387CBD69463046FEF7E6FE10B16FF464
:102FD0007F707CBD9DF80000802809D00020206013
:102FE00029463046FEF7D8FE58B17A480D387CBDE8
:102FF00021463046FEF729FF0028F1D075480C38ED
:103000007CBD00207CBDF8B504460D4616461F4623
:1030100069462046FEF719FF10B16E481038F8BD1A
:103020000098FEF76FF82860009806F0CFFC28683B
:1030300038B139462046FEF7F0FE28B1654812380F
:10304000F8BD64481138F8BD314620463A68FEF7AD
:10305000B4FE10B15F481338F8BDD4E901108842BE
:1030600001D1012000E00020FEF752FE0020F8BD53
:1030700070B5044616461D462046FEF7E6FE10B122
:103080005448103870BD29462046FEF7C6FE10B1E0
:103090005048123870BD314620462A68FEF78DFE32
:1030A00010B14C48133870BDD4E90110884201D1E9
:1030B000012000E00020FEF72BFE002070BD2DE96E
:1030C000F8430446089F884691461E4669462046B6
:1030D000FEF7E8FE3F4D153D08B1284624E4494679
:1030E0002046FEF785FE0028F8D1B9F800204146B9
:1030F0002046FEF762FE08B1284615E43946204610
:10310000FEF78BFE0028E9D1314620463A68FEF7EB
:1031100054FE08B1284607E4D4E90110884201D1E1
:10312000012000E00020FEF7F3FD00201BE418B5AD
:10313000044669462046FEF7B5FE10B1254814380E
:1031400018BDD4E90110884201D1012000E000201F
:10315000FEF7DEFD002018BD2DE9F04107460D46C3
:10316000FEF7D8FD0646284605F0DBFA0446802126
:103170003046FEF7B8FE87B1384605F0D2FA01199D
:10318000891D3046FEF749FF80213046FEF7ABFE31
:1031900039463046FEF722FF07E0211D3046FEF794
:1031A0003CFF00213046FEF79EFE05213046FEF72B
:1031B0009AFE29463046FEF711FF3046BDE8F08101
:1031C00010B5FEF742FE10B102480E3810BD0020C7
:1031D00010BD00000EFCFFFF2DE9F04780468A4637
:1031E000914600244FF48066C24DC34F02E0642034
:1031F00002F0D1F83146C14805F054FA2C6040463F
:1032000005F08FFA02464146384600F07EFA4846FD
:1032100002F0C1F85146B94805F05BFA0028E6D043
:10322000BDE8F08770B54FF47A742246B4A1B5A01A
:10323000FFF7D2FF2246B2A1B4A0FFF7CDFF620094
:10324000AFA1B6A0FFF7C8FF2246ADA1B6A0FFF719
:10325000C3FF40F698052A46A9A1B6A0FFF7BCFF18
:103260002A46A7A1BDA0FFF7B7FF2246BDE87040E0
:10327000A3A1C4A0B0E710B588B01C2101A805F037
:1032800011FA00F074FB4FF48061C24805F00AFAAD
:10329000C148C24C00782070C1A1BE4805F00DFAAB
:1032A000C0A1BC4805F009FAC048C1A1026801A844
:1032B00005F034FE01A9B74805F0FFF9BDA1B548F6
:1032C00005F0FBF9BCA1B34805F0F7F9BC48B8A17B
:1032D000026801A805F022FE01A9AE4805F0EDF94B
:1032E000B4A1AC4805F0E9F9B6A1AA4805F0E5F9A2
:1032F000B7480278AEA101A805F010FE01A9A548C3
:1033000005F0DBF9ABA1A34805F0D7F9B1A1A148BD
:1033100005F0D3F9B2480278A5A101A805F0FEFD99
:1033200001A99C4805F0C9F9A2A19A4805F0C5F980
:10333000ACA1984805F0C1F922789DA101A805F03B
:10334000EDFD01A9934805F0B8F99AA1914805F05F
:10335000B4F9A7A18F4805F0B0F9A848027894A164
:1033600001A805F0DBFD01A98A4805F0A6F991A1A5
:10337000884805F0A2F908B010BD2DE9F0410746D4
:103380008846154600245D4805F0CBF901465B48A8
:1033900005F088F9574900200860574E0C2298A183
:1033A000304600F0B2F908E0642001F0F4FF98A183
:1033B000524805F08EF910B9641CAC42F4DB41466A
:1033C0003846FEF750FE934C2060C82001F0E3FF22
:1033D000206806C8304600F098F94FF4FA7001F002
:1033E000DAFF2046FEF7A7FCC82001F0D4FF032235
:1033F00089A1304600F089F9BDE8F041322001F0A2
:10340000CABF70B50646002500244FF480613B48D2
:1034100005F048F93749002008600E227FA13648A0
:1034200000F073F92AE0642001F0B5FF7FA1334872
:1034300005F04FF910B16FF0030521E07EA12F4890
:1034400005F047F908B100251AE07EA12B4805F0E8
:1034500040F910B16FF0010512E07DA1274805F099
:1034600038F910B16FF004050AE07CA1234805F09B
:1034700030F910B14FF0FF3502E0641CB442D2DBEA
:10348000284670BD70B500244FF480611B4805F0DC
:1034900009F9184900200860174D0C2258A1284648
:1034A00000F033F9642001F076FF59A1134805F0CC
:1034B00010F910B9641C282CF4DBFFF7DCFE354949
:1034C00068A0FFF749FE5349086006C8284600F087
:1034D0001CF95048FEF72FFC4FF4FA7001F05BFF27
:1034E00003224DA1284600F010F9BDE87040C82025
:1034F00001F051BF3400002000440040040C0020C3
:103500004F4B000041540D0A0000000041542B4372
:10351000574D4F44453D310D0A00000041542B5298
:1035200053540D0A0000000041542B4349465352A6
:103530000D0A000041542B43574A41503D22696F08
:10354000747365637572697479222C223131323259
:103550003333343435353636220D0A0041542B438B
:10356000495053544152543D22544350222C22314D
:1035700038332E3233302E34302E3339222C383734
:10358000360D0A0041542B4349504D4F44453D31BF
:103590000D0A000004080020000000204300002065
:1035A0002C3B000074656D702C000000140000209E
:1035B000256400003B00000068756D692C00000068
:1035C000180000206A6471315F73746174752C0097
:1035D000410000206A6471325F73746174752C005D
:1035E0004200002068795F73746174752C000000DC
:1035F000626565705F73746174752C004000002013
:1036000041542B43495053454E440D0A00000000DD
:103610003E0000002C0000202B2B2B0041542B439C
:1036200049505354415455530D0A000053544154CA
:1036300055533A34000000005354415455533A3323
:10364000000000005354415455533A32000000002A
:103650005354415455533A35000000004552524FDF
:1036600052000000353931353535300070B586B03F
:103670000121042002F0C8F90121480402F0CFF929
:103680000425ADF8145018208DF8170003248DF888
:1036900016402B4E05A9304602F07BFA0821ADF802
:1036A00014108DF8175005A9304602F072FA4FF445
:1036B000E13001900020ADF80800ADF80A00ADF847
:1036C0000C00ADF810000C20ADF80E001D4D01A946
:1036D000284602F089FB0121284602F000FC012265
:1036E00040F22551284602F006FC26208DF8000005
:1036F0008DF8014002208DF8020001208DF80300B2
:10370000684602F006F806B070BD2DE9F0410746A4
:103710000D46164640210B4802F0B6FC00240BE093
:1037200015F8011B384602F03BFC4021384602F0F8
:10373000A4FC0028F9D0641CB442F1D3BDE8F081A8
:10374000000801400044004038B50121112002F07A
:103750005BF94FF4B060ADF8000003258DF802501E
:1037600010248DF8034069469D4802F012FA0121A9
:10377000042002F049F92002ADF800008DF8025053
:103780008DF803406946974802F003FA38BD2DE9E9
:10379000F05F95A1964804F09CFF914F954C012550
:1037A00020B18021384602F063FA257092A190483A
:1037B00004F08FFF4FF4807820B14146384602F084
:1037C00057FAE5708EA18A4804F083FF4FF48069B0
:1037D00020B14946384602F04BFA65708AA1844808
:1037E00004F077FFDFF8FCB14FF4805A20B1514666
:1037F000584602F03DFAA57085A17D4804F069FFA6
:10380000002620B18021384602F034FA267082A1C9
:10381000774804F05EFF20B14146384602F02AFAAC
:10382000E6707FA1724804F054FF20B14946384643
:1038300002F020FA66707CA16D4804F04AFF20B1C6
:103840005146584602F016FAA67079A1684804F06D
:1038500040FF20B11021584602F00AFA257176A1E6
:10386000634804F036FF20B11021584602F002FAF6
:10387000267173A15E4804F02CFF20B12021584628
:1038800002F0F8F9657170A1594804F022FF20B1E7
:103890002021584602F0ECF966716DA1544804F0FD
:1038A00018FF20B14021584602F0E4F9A5716AA141
:1038B0004F4804F00EFF002804D04021584602F083
:1038C000D7F9A671BDE8F09F2DE9F0470C464FF4FB
:1038D0008076B700DFF80C91414D4FF480580028F6
:1038E00029D08021284602F0C5F93146284602F049
:1038F000C1F93946284602F0BDF94146484602F072
:10390000B9F9E00703D08021284602F0B1F9A007F9
:1039100003D53146284602F0ABF9600703D5394696
:10392000284602F0A5F920071FD541464846BDE8C4
:10393000F04702F09DB9E00703D08021284602F04D
:1039400099F9A00703D53146284602F093F960079C
:1039500003D53946284602F08DF9200705D54146A2
:103960004846BDE8F04702F085B9BDE8F0872DE98B
:10397000F04120213A4802F067F901261D4C00254C
:1039800050B1E571164F8021384602F067F928B131
:1039900026700A20207203E0E671F3E72570257295
:1039A0004FF480510F4802F059F918B1A670142055
:1039B000207201E0A57025724FF48071384602F044
:1039C0004DF908B1E67000E0E5704FF480613846CB
:1039D00002F044F910B16670BDE8F0816570FBE754
:1039E00000100140000801404C4544313100000006
:1039F000041000203C0000204C45443231000000FF
:103A00004C454433310000004C4544343100000043
:103A10004C454431300000004C4544323000000039
:103A20004C454433300000004C4544343000000025
:103A300042454550310000004245455030000000ED
:103A40004A445131310000004A44513130000000F5
:103A50004A445132310000004A44513230000000E3
:103A6000000C014010B5FE4C6168A16000EB400005
:103A700004F11001084460600178FA4A02EB411138
:103A8000E1604969002900D08847E0688169002920
:103A900003D06068BDE81040084710BD0220E1E790
:103AA000EF4A002191701146C968C969084710B5ED
:103AB000EB4CA078401CA0702346DA68107C0028EC
:103AC0000AD06178491CC9B26170814204D39169FE
:103AD000586888470020607010BD002211F8013B33
:103AE00000F8013B521CD2B2042AF7D370472DE9EB
:103AF000FC47DFF86C93D9F80C00867B0024DFF8D4
:103B000068834AE0D9F804004178B14201D300212A
:103B100041704078A04206D1601CC0B2D34A012156
:103B200000F09EFF06E0D14A601CC0B218320121AD
:103B300000F096FF04F11500C0B2671C07F0FF0A01
:103B4000022100EB400008EBC002504600F088FF65
:103B5000D9F80C00C3492044007A01EB40116846B3
:103B6000FFF7BBFF00256C46605DE91CC9B200EBA6
:103B7000400008EBC002504600F072FF6D1CEDB231
:103B8000042DF1D3B84A0721504600F069FFB64A28
:103B90000821504600F064FFFCB2B442B2D3BDE845
:103BA000FC872DE9FF4F81B00D46DDE90EB492464A
:103BB0001F460026B046AE48009008F1010808F004
:103BC000FF08BAFBF7F959EA060014D009F13A00E8
:103BD000A54900EB400001EBC002234629460198AD
:103BE00000F004FF0834E4B2761CF6B2102C02D3C5
:103BF0006D1CEDB20024D8451DD166B9DDE9002069
:103C00002346294600F0F2FE0834E4B2102C02D319
:103C10006D1CEDB20024964A2346F03229460198E5
:103C200000F0E4FE0834E4B2761CF6B2102C02D3A5
:103C30006D1CEDB2002407FB19AA0A20B7FBF0F7B0
:103C4000002FBAD156EA0B060CD1DDE9002023463D
:103C5000294600F0CBFE0834E4B2102C02D36D1CD0
:103C6000EDB2002424B145F0800005B0BDE8F08F2E
:103C70002846FAE72DE9FC477B4A02211832012049
:103C800000F0EEFE784A03213032012000F0E8FE19
:103C9000754A04214832012000F0E2FE724A0521F3
:103CA0006032012000F0DCFE6F4A062178320120EC
:103CB00000F0D6FE6C4A07219032012000F0D0FEC1
:103CC000694A6C4C02F1A80502F1C006216802F1B4
:103CD000D80702F1F00902F5847A02F5A26841BB27
:103CE0002A460121042000F0BBFE324602210420B6
:103CF00000F0B6FE3A460321042000F0B1FE042194
:103D00004A46084600F0ACFE52460521042000F069
:103D1000A7FE42460621042000F0A2FE564A0721D3
:103D2000042000F09DFE544A08211832042000F0BF
:103D300097FE2068012829D12A460121042000F09D
:103D40008FFE32460221042000F08AFE3A4603210B
:103D5000042000F085FE04214A46084600F080FE5B
:103D600052460521042000F07BFE42460621042035
:103D700000F076FE404A07213032042000F070FE49
:103D80003D4A08214832042000F06AFE374A0221E9
:103D9000A832084600F064FE354A0321783A92467C
:103DA000022000F05DFE002342460421022000F0C4
:103DB0001DFE32484FF000054FF002060268CDE9C3
:103DC00000656420424300D552424FF47A794B4655
:103DD00005210220FFF7E5FE00F07F04082707EA2F
:103DE000101373B1204A2146022000F0FFFD641C2D
:103DF000E4B206E01C4A2146032000F031FE641CB8
:103E0000E4B2062CF6D91A4A0821183A022000F02A
:103E100027FE154A0121032000F022FE144A022148
:103E2000A83A032000F01CFE03215246084600F089
:103E300017FE42460421032000F012FE1048CDE98F
:103E400000650268642042434B4605210320FFF7CA
:103E5000A8FE00F07F0407EA10130BB3024A11E03A
:103E60004800002034AE0008BCA40008C4A8000824
:103E70002CAA00080C000020DCA50008140000207B
:103E8000180000202146032000F0B0FD641CE4B2BD
:103E900006E0FE4A2146032000F0E2FD641CE4B285
:103EA000062CF6D902B00821BDE8F047F84A0320F5
:103EB00000F0D6BD2DE9FC4101260121F54A084656
:103EC00000F0CEFDF34A02211832012000F0C8FDB7
:103ED000F04A0321A83A012000F0C2FDED4A042176
:103EE0003032012000F0BCFDEB4A052117460120CD
:103EF00000F0B6FDE54A0621012000F0B1FD0825DD
:103F000003246423C02231460220CDE90045FFF797
:103F100048FE00F07F0105EA1010CDE9004064235F
:103F2000A8220220FFF73DFE00F07F0105EA1010F5
:103F3000CDE9004064236E220220FFF732FE00F03C
:103F40007F0105EA10100026CDE900606423682295
:103F50000220FFF726FE00F07F0405EA101373B17C
:103F6000CA4A2146022000F041FD641CE4B206E08A
:103F7000C64A2146022000F073FD641CE4B2062C00
:103F8000F6D9C34A01213032032000F069FDC04A4E
:103F900002214832032000F063FDBD4A0321603254
:103FA000084600F05DFD3A460421032000F058FD6C
:103FB000009642F2107341F6B432052103200196B7
:103FC000FFF7EFFD00F07F0405EA101373B1AF4A6D
:103FD0002146032000F00AFD641CE4B206E0AB4A6F
:103FE0002146032000F03CFD641CE4B2062CF6D907
:103FF000BDE8FC812DE9FC410126A64A0121603A79
:10400000084600F02DFDA34A0221483A012000F0A5
:1040100027FDA04A0321A83A012000F021FD9D4A76
:1040200004213032012000F01BFD9B4A0521174678
:10403000012000F015FD954A0621012000F010FD39
:10404000082503246423C02231460220CDE900451F
:10405000FFF7A7FD00F07F0105EA1010CDE9004051
:104060006423A8220220FFF79CFD00F07F0105EAEF
:104070001010CDE90040642300220220FFF791FDDB
:1040800000F07F0105EA10100026CDE900606423EE
:104090005E220220FFF785FD00F07F0405EA101381
:1040A00073B17A4A2146022000F0A0FC641CE4B2FD
:1040B00006E0764A2146022000F0D2FC641CE4B2FD
:1040C000062CF6D9724A01213032032000F0C8FCD8
:1040D0006F4A02214832032000F0C2FC6C4A0321DF
:1040E0006032084600F0BCFC3A460421032000F090
:1040F000B7FC009642F210730A22052103200196B4
:10410000FFF74FFD00F07F0405EA101373B15F4A1B
:104110002146032000F06AFC641CE4B206E05B4A1E
:104120002146032000F09CFC641CE4B2062CF6D966
:104130005EE77CB5564A02217832012000F090FCFF
:10414000534A03214832012000F08AFC504A0421DE
:104150009032012000F084FC4E4A0521D83A01201B
:1041600000F07EFC4C4A06211646012000F078FC47
:10417000474A0721A832012000F072FC0221474A79
:10418000084600F06DFC454A03211832022000F079
:1041900067FC424A04213032022000F061FC3246C2
:1041A0000521022000F05CFC002400943C4B4FF4FD
:1041B000E132062102200194FFF7F3FC00F07F01B9
:1041C000082505EA10131BB1304A022000F00EFC4E
:1041D0002E4A0121032000F043FC324A0221032031
:1041E00000F03EFC2F4A03214832084600F038FC1C
:1041F0002A4A04214832032000F032FC274A0521D4
:104200006032032000F02CFC32460621032000F02F
:1042100027FC00944FF47A730F22072103200194A6
:10422000FFF7BFFC00F07F0105EA1013002B06D05A
:1042300002B0164ABDE87040032000F0D7BB7CBD39
:1042400010B50121114A084600F00AFC0F4A02216C
:10425000012000F005FC0D4A0121022000F000FCC5
:104260000E4A02217832084600F0FAFB0B4A03217D
:104270009032022000F0F4FB084A0421A832022008
:1042800000F0EEFB054AC03205210DE0BCA4000899
:1042900034AB00087CA80008CCA900083CAC00089E
:1042A000A086010044A70008022000F0D9FB3F4A85
:1042B0000621022000F0D4FB3D4A0121032000F03A
:1042C000CFFB3B4A0221032000F0CAFB0321394AFD
:1042D000084600F0C5FB374A04211832032000F0DD
:1042E000BFFB344A07214832BDE81040032000F0EC
:1042F000B7BB30B4304B01460024586801292AD09E
:104300001A460229D26819D004290AD0082929D1CD
:10431000917B002926D040780832805C30BCFFF7C2
:10432000A1BB4178491CC9B24170DA68927B9142C5
:1043300000D34470D968496930BC0847417811B14D
:10434000491E417003E0917B09B1491E4170D96853
:10435000496930BC084744708470D868C07B30BC61
:10436000FFF780BB30BC7047134A014602295068F2
:104370000ED0042919D14178491CC9B24170D368C3
:104380009B7B994201D300214170D168496908475C
:10439000417811B1491E417004E0D168897B09B1AF
:1043A000491E4170D168496908477047CCA9000887
:1043B000BCA4000814AD000848000020F8B5012195
:1043C0002C2001F021FB0121FE4801F073FC0820A4
:1043D000ADF8000010208DF8030003208DF80200D6
:1043E0006946F94801F0D5FB0420ADF80000F74D0F
:1043F0006946284601F0CDFB4FF40044ADF800407B
:10440000F34E6946304601F0C4FB2146304601F0C8
:104410002FFC0421284601F02BFCF8BD2DE9F041CA
:1044200005460024E94FE84E280604D50421384605
:1044300001F01EFC03E00421384601F01BFC680675
:10444000050E0821304601F013FC0120FCF79EF810
:104450000821304601F00EFC0520FCF797F8641C9B
:10446000E4B2082CE0D3BDE8F08110B50446F82092
:10447000FFF7D4FF04F0F000FFF7D0FF2007BDE8FE
:104480001040000ECAE710B50446FA20FFF7C6FF39
:1044900004F0F000FFF7C2FF2007BDE81040000E57
:1044A000BCE710B50C46401EC107C90E400801EB21
:1044B000C0008030C0B2FFF7D8FF02E0FFF7E3FF93
:1044C000641C20780028F9D110BD30B5C14B040917
:1044D00003EB011535F8143000F00F000121C0F195
:1044E0000F008140002A02D0194388B201E023EA7C
:1044F000010025F8140030BD2DE9F043079E00F0BF
:104500000F03B44C4FEA101C04EB011737F81C10D2
:1045100000204FF001094FF080080FE028FA00F565
:10452000354205D01D1809FA05F40C43A1B203E089
:104530001D1809FA05F4A143401CC0B29042EDD306
:1045400027F81C10BDE8F08370B5A24B050903EBFA
:10455000011333F8154000F00F00082804D262F36D
:104560001F2423F8154005E004F47F40104484B272
:1045700023F815401F2903D92039C9B20835EDB2F7
:104580008031C8B2FFF771FF8035E8B2FFF76DFFE9
:10459000200AFFF778FFE0B2BDE8704073E770B51E
:1045A00014461E4605091F2903D92039C9B208350A
:1045B000EDB28031C8B2FFF758FF8035E8B2FFF79F
:1045C00054FF002509E02088000AFFF75CFF2078EF
:1045D000FFF759FFA41C6D1CEDB2B542F3D370BDBB
:1045E00038B504460D4629462046FFF76EFF009079
:1045F00001236A4629462046FFF7D1FF38BD754B97
:1046000003EB0111030911F8131000F00F0301204F
:104610009840084200D00122104670472DE9F84F1B
:10462000002400F00F076B4DA2EB0008C7F1100A41
:1046300006094FF4004C05EB0115D04525DA08F1C9
:10464000010808F0FF0235F816500095664614E0A0
:104650004BB13D1926FA05FCBDF800504CEA050C9B
:10466000CDF800C007E03D1926FA05FCBDF8005062
:1046700025EA0C050095641CE4B29442E8D30123BA
:104680006A46FFF78CFFBDE8F88F07074FF6FF7803
:104690004FF000091ED035F8167000974FF0010B4F
:1046A00011E03BB1BDF800E00BFA04F747EA0E0752
:1046B000009706E0BDF800700BFA04FE27EA0E072B
:1046C0000097641CE4B25445EBD3BDF8004025F8D4
:1046D000164005E013B125F8168001E025F8169084
:1046E000D44324074FEA121722D035F8174000941C
:1046F0000024E34602F00F0A13E043B1BDF800E0E6
:104700002BFA04FC4CEA0E0CCDF800C007E0BDF813
:1047100000C02BFA04FE2CEA0E0CCDF800C0641C7D
:10472000E4B2A245E9D2BDF8004025F8174005E003
:1047300013B125F8178001E025F81790012404EB48
:10474000101407E013B125F8148001E025F8149047
:10475000641CE4B2B4EB121FF4D3A7EB1012521C8A
:10476000D3B205EB4602FFF71AFF8CE72DE9F041C3
:1047700007460C4615461E4606E032462146384698
:10478000FFF72EFF641CE4B2AC42F6D36BE62DE9D2
:10479000F00F089C00230F4D4FEA101605EB011592
:1047A00007074FF6FF7805EB460920D000F00F0C05
:1047B000CCF1100A35F8167008FA0AF807EA08076B
:1047C0004DE0000000023000000C014000140140E8
:1047D0000008014004110020667814F8027B06EB03
:1047E000072603EB101725F817605B1CDBB2B3EB51
:1047F000121FF1D302F00F02B2B103EB101628FA28
:1048000002FC35F8167007EA0C0794F801C024780A
:104810000CEB0424C2F1100208FA02F808EA0408BA
:1048200048EA070825F816805B1CDBB24A46BDE85B
:10483000F00FB4E603EB1018BB4625F81870667845
:1048400014F8027B06EB0726B6B206FA0AF7BFB2E7
:1048500026FA0CF65E4425F818605B1CDBB2B3EB5D
:10486000121FE7D3160743D003EB101635F8167066
:1048700000264FF0010A33E0082E04D3083AD2B2E2
:10488000083EF6B2641C4FF0800894F800B028FA95
:1048900006F81BEA080F08D0CCF10F0B0AFA0BF848
:1048A00048EA07081FFA88F705E0CCF10F080AFA72
:1048B00008F827EA08070CF1010C0CF0FF0CBCF11A
:1048C000100F0BD103EB101C25F81C705B1CDBB226
:1048D0004FF0000C03EB101735F81770761CF6B28A
:1048E00002F00F08B045C7D803EB101225F812707C
:1048F0005B1CDBB24A46BDE8F00F50E62DE9F047FD
:104900008046DDF820900E461F46002408EB020585
:1049100008E03019C1B2EAB24B464046FFF77EFECE
:10492000641CE4B2BC42F4D3002408E03019C1B2E4
:10493000EAB24B464046FFF771FE641CE4B2BC424B
:10494000F4D3F419E2B24B4631464046FFF70EFF6E
:10495000E2B2E8B24B463146BDE8F04706E72DE942
:10496000FF4F85B08346DDE91347129E884699467E
:1049700000250DF1040A17E0002007E0CFB114F87C
:10498000011BC9430AF80010401CC0B2B042F5D365
:1049900008EB0500C1B23346CDF800A05846079A8F
:1049A000FFF7F5FE6D1CEDB24D45E5D309B0BDE84E
:1049B000F08F14F8011B0AF80010E5E770B51646F1
:1049C0001D46C4088031C8B2FFF74FFD8034E0B205
:1049D000FFF74BFD002405E02878FFF754FD6D1C20
:1049E000641CE4B2B4EBD60FF6D370BD2DE9F041F0
:1049F0001646C20701D0002200E01022032801D28F
:104A0000002000E08020491E03EB01110844C7B2DA
:104A1000921CD4B200252146641C3278E4B2384698
:104A2000FFF792FDB61C6D1CEDB20C2DF3D30025E3
:104A3000802000EBD7062046641C8030E4B2C0B270
:104A4000FFF713FDF0B2FFF710FD0020FFF71BFD8D
:104A50000020FFF718FD6D1CEDB2022DEBD302E52F
:104A60002DE9F0411646C20701D0002200E01022D5
:104A7000032801D2002000E04020491E00EBC100C5
:104A8000C7B2921CD4B200252146641CE4B233465E
:104A900010223846FFF792FFB61C6D1CEDB20C2DAC
:104AA000F2D30025802000EBD7062046641C80301E
:104AB000E4B2C0B2FFF7D9FCF0B2FFF7D6FC002099
:104AC000FFF7E1FC0020FFF7DEFC6D1CEDB2022DCC
:104AD000EBD3C8E470B5002505F18000C0B2FFF744
:104AE000C4FC8020FFF7C1FC00240020FFF7CBFCB2
:104AF000641CE4B2202CF8D36D1CEDB2202DEBD356
:104B000070BD10B52820FBF75AFD3020FFF7ADFC33
:104B10000C20FFF7AAFC0120FFF7A7FC0A20FBF7F7
:104B20004EFD0620FFF7A1FC8020FFF79EFC3420FD
:104B3000FFF79BFCBDE81040362096E410B5FFF768
:104B40003DFCFFF7DEFFBDE81040C3E708B5B34901
:104B5000884215D10121880500F061FF012108205C
:104B600000F052FF4FF44060ADF8000003208DF8D4
:104B700002001C208DF803006946A94801F009F8DD
:104B800008BD1FB50446A548844223D1204601F044
:104B9000EBFC0021204601F06AFD0020ADF8040086
:104BA0004BF6FF71ADF80610ADF808002015ADF812
:104BB0000A000001ADF80C009A480090012120463F
:104BC00001F055FD6946204601F0E8FC0121204630
:104BD00001F089FD1FBD704710B5904C2046FFF7CE
:104BE000B5FF2046FFF7CDFFBDE81040F3E72DE904
:104BF000F041064617461D464FF6FF7000EA410495
:104C00000121304601F06FFD0121304601F053FDD6
:104C1000DFF814823046414601F024FE0028F9D026
:104C2000E1B20022304601F099FD804C3046214629
:104C300001F018FE0028F9D00121304601F017FDDF
:104C40003946304601F085FD784CA41C214630469B
:104C500001F008FE0028F9D04DB12978304601F066
:104C600078FD2146304601F0FDFD0028F9D00121F4
:104C7000304601F02CFD0020BDE8F0812DE9F04721
:104C8000064690461D464FF6FF7000EA410401219A
:104C9000304601F028FD0121304601F00CFD624F45
:104CA0003046394601F0DEFD0028F9D0E1B200229D
:104CB000304601F053FDDFF874913046494601F06B
:104CC000D1FD0028F9D04146304601F042FDDFF821
:104CD0005C8108F102084146304601F0C3FD00281E
:104CE000F9D00121304601F0E6FC04E0E1B20122F6
:104CF000304601F033FD3946304601F0B3FD00285F
:104D0000F4D0494C641C2146304601F0ABFD00282C
:104D1000F9D0454C3F342146304601F0A3FD002830
:104D2000F9D0304601F017FD04460021304601F06D
:104D3000DAFC0121304601F0CAFC2C700020BDE8ED
:104D4000F0872DE9F0470746089C0D461646994620
:104D50000121384601F0C7FC0121384601F0ABFCC7
:104D60007006060EDFF8C0803846414601F07AFD35
:104D70000028F9D000223146384601F0EFFCDFF878
:104D8000ACA03846514601F06DFD0028F9D04946E7
:104D9000384601F0DEFCDFF8949009F1020949463B
:104DA000384601F05FFD0028F9D00121384601F0B6
:104DB00082FC4146384601F055FD0028F9D0012219
:104DC0003146384601F0CAFC174E761C314638464B
:104DD00001F048FD0028F9D0134E3F3615E0012CB4
:104DE00007D10021384601F07EFC0121384601F050
:104DF0006EFC3146384601F035FD30B1384601F0E1
:104E0000AAFC05F8010B641EE4B2002CE7D10121D5
:104E1000384601F068FC002091E70000005800408F
:104E2000000C0140A0860100010003008200070081
:104E30000023FE224021FE48FFF7D9BE08B500201E
:104E400000906B46E7224021F948FFF717FF9DF8D5
:104E5000000008BD01B56B46E6224021F448FFF78B
:104E6000C6FE08BD10B520F0030003F0A3FDF14A13
:104E7000F14B03F01CFD0022F04B03F012FDBDE8E6
:104E8000104003F013BE10B520F0030003F081FDC5
:104E9000EB4AEC4B03F00BFDEB4AEC4B03F060FCF0
:104EA000BDE8104003F002BEF0B50023002540F23B
:104EB000311610E04457634008241F0603D586EAE4
:104EC00043035BB201E05B005BB2641E64B2002C82
:104ED000F3DC6D1C6DB28D42ECDB934201D00120FE
:104EE000F0BD0020F0BD2DE9F84305460C466FF0FB
:104EF0007F06DFF83C830121404601F0F4FB0121ED
:104F0000404601F0D8FBD24F4046394601F0AAFC9A
:104F10000028F9D0F1B20022404601F01FFCDFF872
:104F200034934046494601F09DFC0028F9D02946BB
:104F3000404601F00EFCDFF81C9309F102094946D6
:104F4000404601F08FFC0028F9D0962000F023FAAB
:104F50000121404601F0AFFB3946404601F082FC9A
:104F60000028F9D0962000F016FAF1B24646012248
:104F7000304601F0F3FBB64F7F1C3946304601F056
:104F800071FC0028F9D04FF4967000F004FA37460F
:104F9000AF4E3F363146384601F064FC0028F9D068
:104FA000384601F0D8FB8DF800003146384601F054
:104FB00059FC0028F9D0384601F0CDFB8DF80100EE
:104FC0003146384601F04EFC0028F9D0384601F051
:104FD000C2FB46B20121384601F079FB324602217C
:104FE0006846FFF761FF9DF901009DF8001000EB96
:104FF000012080B2E32D08D0FFF734FF14B103F095
:10500000E6FC20800020BDE8F88300B2FFF73BFFFC
:10501000F4E72DE9F84F0446002000906FF07F057B
:10502000834E0121304601F05EFB0121304601F044
:1050300042FBDFF81C823046414601F013FC002899
:10504000F9D0E9B20022304601F088FBDFF8049283
:105050003046494601F006FC0028F9D0FA213046D6
:1050600001F077FB7B4FBF1C3946304601F0FAFB5D
:105070000028F9D00F21304601F06BFB394630464D
:1050800001F0F0FB0028F9D0642000F084F9012140
:10509000304601F010FB4146304601F0E3FB0028AA
:1050A000F9D0E9B20122304601F058FBDFF8A0A1A7
:1050B0000AF1010A5146304601F0D4FB0028F9D02C
:1050C000B346634E3F363146584601F0CBFB0028CD
:1050D000F9D0584601F03FFB60713146584601F067
:1050E000C1FB0028F9D0584601F035FB314658463F
:1050F00001F0B8FB0028F9D0584601F02CFB2071D4
:105100003146584601F0AEFB0028F9D0584601F070
:1051100022FB3146584601F0A5FB0028F9D058463D
:1051200001F019FBE0703146584601F09BFB002866
:10513000F9D0584601F00FFB3146584601F092FB7A
:105140000028F9D0584601F006FBA07031465846B9
:1051500001F088FB0028F9D0584601F0FCFA002144
:10516000584601F0C0FA0121584601F0B0FA642017
:1051700000F011F90121584601F09DFA41465846C8
:1051800001F070FB0028F9D0E9B20022584601F086
:10519000E5FA4946584601F065FB0028F9D0FC21A4
:1051A000584601F0D6FA3946584601F05BFB002814
:1051B000F9D0C921584601F0CCFA3946584601F0D9
:1051C00051FB0028F9D0642000F0E5F80121584691
:1051D00001F071FA4146584601F044FB0028F9D02D
:1051E000E9B20122584601F0B9FA5146584601F099
:1051F00039FB0028F9D03146584601F033FB00282E
:10520000F9D0584601F0A7FA60703146584601F0CF
:1052100029FB0028F9D0584601F09DFA207031464C
:10522000584601F01FFB0028F9D0584614E0000052
:10523000005800407644CF7701405F3F000018409F
:10524000D7A3703D0AF7653FCDCCCCCCCC6C47C022
:10525000010003008200070001F07DFA3146584644
:1052600001F000FB0028F9D0584601F074FAE07113
:105270003146584601F0F6FA0028F9D0584601F0B8
:105280006AFAA0713146584601F0ECFA0028F9D0CC
:10529000584601F060FA0021584601F024FA012135
:1052A000584601F014FA0020401C40B20828FBDBED
:1052B0000098BDE8F88F86B003254FF47A7640F267
:1052C000DC54FFF789FCFFF7B9FDC82000F063F854
:1052D0000021E320FFF707FE304600F05CF820468F
:1052E00000F059F8204600F056F80021E520FFF7BD
:1052F000FAFD204600F04FF801A8FFF78AFE20468D
:1053000000F049F8FFF79AFD204600F044F82846DF
:10531000FFF7A0FD204600F03EF8FFF78FFD204686
:1053200000F039F8FFF784FD204600F034F8C8E7B4
:1053300070B50D46002406E0601C400702D121A094
:1053400003F0DCFD641CAC42F6D3BDE870401DA048
:1053500003F0D4BD092802D83030C0B27047A0F1A4
:105360000A01052902D83730C0B270473020704793
:1053700070B5FF23FF22144D05F5807605E010F887
:10538000014B54402A5D5A40335D491E89B2F6D222
:1053900042EA032070BD002808D042F6E0620021F6
:1053A000491C9142FCD3401E0028F8D170470028C8
:1053B00006D000BF00BF00BF00BF401E0028F8D1CC
:1053C000704700000D0A000094AF000838B50122B4
:1053D00040F22551C74800F08EFD25208DF80000D1
:1053E00001248DF801408DF802408DF80340684695
:1053F00000F08FF917208DF8000007208DF80100CC
:105400008DF802008DF80340684600F082F938BD3F
:105410001CB50121084600F0F7FA0521012000F033
:1054200074FC2020009000208DF8040001208DF8ED
:1054300006000C208DF80500684600F069FE1CBDD2
:1054400030B585B00121052000F0DEFA0121880386
:1054500000F0DAFA4FF40070ADF8100003248DF874
:10546000124018208DF81300A34D04A9284600F01F
:1054700090FB2915ADF810108DF8124004218DF81D
:10548000131004A9284600F084FB4FF41640009046
:105490000020ADF80400ADF80600ADF80800ADF846
:1054A0000C000C20ADF80A00924C6946204600F032
:1054B0009BFC0121204600F012FD05B030BD38B53F
:1054C0000121042000F0A0FA6020ADF800001020B7
:1054D0008DF8030002208DF80200874C69462046B3
:1054E00000F057FB2021204600F0C4FB402120465D
:1054F00000F0C0FB38BD08B50121082000F084FA97
:105500002020ADF8000004208DF8030002208DF863
:1055100002006946794800F03CFB08BD38B501211E
:10552000042000F071FA1020ADF800008DF803009F
:1055300002208DF80200704C6946204600F029FBDD
:105540001021204600F096FB38BD10B5FFF7E6FFAE
:10555000FFF7D1FFFFF7B3FFFFF772FFFFF758FF29
:10556000BDE8104032E738B50121082000F04CFAC0
:105570000320ADF800008DF8020010208DF8030024
:105580005E4C0121204600F073FB0221204600F012
:105590006FFB6946204600F0FCFA38BD10B5574C49
:1055A0000121204600F05AFB28B12046BDE81040FA
:1055B000012100F05FBB2046BDE81040012100F052
:1055C00057BB10B54D4C0221204600F047FB28B1D7
:1055D0002046BDE81040022100F04CBB2046BDE84B
:1055E0001040022100F044BB38B50121082000F032
:1055F0000BFA6020ADF8000003208DF802000420B3
:105600008DF803003D4C6946204600F0C2FA202187
:10561000204600F02DFB4021204600F029FB38BD3C
:1056200070B50446334D4021284600F026FD002881
:10563000F9D0A1B2284600F0B3FC204670BD30B5C9
:1056400087B00121102000F0DFF9012140F2012094
:1056500000F0DAF94FF4004000F058F91020ADF8EE
:10566000180000248DF81B4006A9254800F091FA87
:10567000244D284600F0B4FD01948DF808408DF8C3
:1056800009404FF460210391049401218DF8141016
:1056900001A9284600F0D0FD0121284600F0F4FDC4
:1056A000284600F014FE284600F016FE0028FAD125
:1056B000284600F018FE284600F01AFE0028FAD10D
:1056C00007B030BD10B50F4C072301220E21204634
:1056D00000F03CFE0121204600F011FE0221204690
:1056E00000F01AFF0028F9D02046BDE8104000F075
:1056F00073BE00000038014000080140000C01406A
:1057000000100140002401402A4908432A4908604A
:10571000704770B50F23C27801260178002A1ED089
:10572000254A126802F4E062C2F5E062120AC2F190
:105730000404D3404578A54082781A402A431201D8
:1057400001F1E02181F80024007800F01F018E4073
:105750004009800000F1E020C0F8006170BD01F058
:105760001F0086404809800000F1E020C0F88061F9
:1057700070BD124A114001430F48001F016070477D
:105780000D4A121D002903D01168014311607047B2
:1057900011688143116070474FF0E021042804D064
:1057A000086920F0040008617047086940F00400AF
:1057B000086170470000FA050CED00E080FFFF1F54
:1057C000B548016841F0010101604168B34A1140E8
:1057D00041600168B24A11400160016821F48021F2
:1057E0000160416821F4FE0141604FF41F018160B6
:1057F0007047A9490A6822F480320A600A6822F4D4
:1058000080220A60B0F5803F07D0B0F5802F03D129
:10581000086840F4A02008607047086840F48030B1
:10582000086070470346002059099B4A01290AD0A5
:1058300002290AD0516A03F01F02012393400B4250
:1058400000D0012070471168F5E7116AF3E718B539
:10585000002000904FF4A0643120FFF7E3FF00998F
:10586000491C00910099A14201D00028F4D03120B8
:10587000FFF7D8FF08B1012018BD002018BD864AE7
:10588000116821F0F80141EAC000106070478549B5
:1058900008607047804B5A6822F47C12084310431A
:1058A000586070477F49086670477B4A516821F00D
:1058B00003010143516070477748406800F00C00D5
:1058C0007047754A516821F0F001014351607047FB
:1058D000714A516821F4E0610143516070476E4A9A
:1058E000516821F4605141EAC000506070476A4A33
:1058F000002903D0517A014351727047517A814394
:10590000517270476749D83108607047624A5168E0
:1059100021F440410143516070475F49002220312A
:105920000A7001F82029012805D0042802D1052099
:1059300081F820007047012081F8200070475A4903
:105940000860704754490A6A02430A627047564920
:1059500044390860704710B54F4A516801F00C0196
:10596000524B002927D0042927D0082928D00360CA
:10597000516801F0F00109094D4B5C5C0168E140A0
:105980004160546804F4E064240A1C5D21FA04F4C4
:105990008460546804F46054E40A1B5DD940C1601B
:1059A000526802F44042920B414B1B1F9A5CB1FBC0
:1059B000F2F1016110BD0360DAE73E490160D7E70B
:1059C000516801F47011536803F48033022404EB2E
:1059D000914133B153689B0307D5374B594301605D
:1059E000C6E7364B59430160C2E7324B5943016069
:1059F000BEE7294A002903D051690143516170472C
:105A00005169814351617047234A002903D091694C
:105A100001439161704791698143916170471E4ACA
:105A2000002903D0D1690143D1617047D169814315
:105A3000D1617047184A002903D0D1680143D16071
:105A40007047D1688143D1607047134A002903D061
:105A500011690143116170471169814311617047F8
:105A600011494039086070470E49C86470470A49B7
:105A7000C87170470848416A41F0807141627047BF
:105A800001460020044A92680A4200D00120704773
:105A90000149887270470000001002400000FFF8C2
:105AA000FFFFF6FE000042428004424200127A00EC
:105AB0007D000020001BB700808D5B0000093D00C9
:105AC00010B59C49884209D101210420FFF7B2FF9B
:105AD0000021BDE810400420FFF7ACBF9649884282
